:020000040800F2
:1000000000040020E7010008F5010008F7010008DE
:10001000F9010008FB010008FD01000800000000D4
:10002000000000000000000000000000FF010008C8
:100030000102000800000000030200080502000899
:100040006B1200086D1200086F1200087112000890
:100050007312000875120008771200089312000846
:100060009512000897120008991200089B120008C8
:100070009D1200089F120008A1120008A312000898
:10008000A5120008A7120008A9120008070200081C
:10009000070200080702000807020008B312000860
:1000A000B5120008B7120008B9120008BB12000808
:1000B000BD120008BF120008C1120008C3120008D8
:1000C000C5120008C7120008C9120008CB120008A8
:1000D000CD120008CF120008D1120008D312000878
:1000E000D5120008D7120008D9120008DB12000848
:1000F000DD120008DF120008E1120008E312000818
:10010000E5120008E7120008E9120008EB120008E7
:10011000ED120008EF120008F1120008F3120008B7
:10012000F5120008F7120008F9120008FB12000887
:1001300000F002F800F047F80AA090E8000C8244B2
:100140008344AAF10107DA4501D100F03CF8AFF28F
:10015000090EBAE80F0013F0010F18BFFB1A43F0A5
:100160000103184764C5000084C50000103A24BF8D
:1001700078C878C1FAD8520724BF30C830C144BF0C
:1001800004680C607047000000230024002500264E
:10019000103A28BF78C1FBD8520728BF30C148BFEA
:1001A0000B607047782907F00185002070471FB564
:1001B0009DE8030008F0EEF907F0D0FE1FBD10B572
:1001C00007F035FF10BD07F09DFF1146FFF7EFFF69
:1001D00000F0E5FF08F08CF903B4FFF7F0FF03BC73
:1001E00008F06AFB70470B4880470B4981F3088889
:1001F0000A480047FEE7FEE7FEE7FEE7FEE7FEE708
:10020000FEE7FEE7FEE7FEE705480649044A064B1F
:1002100070470000E5010008784100203101000826
:100220007838002078410020783800202849084399
:1002300028490860704770B50F23C47801780122FF
:10024000F4B1244C2468457804F4E064C4F5E06417
:10025000240AC4F10406E3408478B5401C402C43D2
:1002600001F1E021230181F80034007800F01F0142
:100270008A404009800000F1E020C0F8002170BDF4
:1002800001F01F0082404809800000F1E020C0F822
:10029000802170BD104A114001430E48001F0160CB
:1002A00070470C4A121D0029116801D0014300E07B
:1002B0008143116070474FF0E0210428086903D0A2
:1002C00020F004000861704740F00400FAE70000E5
:1002D0000000FA050CED00E080FFFF1F016821F02F
:1002E000010101600021016041608160C160644BD7
:1002F0006349C21A8039984243D018DC614BA0EBA5
:100300000302984235D00ADC5F4A801829D01428AD
:100310002BD0282824D1486840F4706034E0142A97
:100320002BD0282A1CD1486840F470002CE0574894
:10033000B2F56C7F2ED009DCB2F5627F26D0B2F523
:10034000677F0DD1016841F0F00108E0B2F5717FDF
:1003500024D0B2F5767F03D1016841F470210160A9
:100360007047486840F00F000EE0486840F0F00029
:100370000AE0486840F4704006E0486840F47020A5
:1003800002E0486840F0706048607047016841F0E2
:100390000F01E4E7016841F47061E0E7016841F4AE
:1003A0007041DCE730B5036847F6F07293430C6A9E
:1003B0008A682243D1E904452C4322438C692243B5
:1003C000CC6922434C6A22438C6A22431A4302605E
:1003D000CA6842600A6882604968C16030BD002115
:1003E000016041608160C160016141618161C16101
:1003F00001624162816270470029016802D041F0C8
:10040000010101E021F0010101607047002A02684A
:1004100001D00A4300E08A4302607047406880B21E
:10042000704701460020CA0002D5184A121F01E099
:10043000144A443A12680A4200D001207047C100B1
:1004400002D51249086070470E4944394860704728
:1004500001460020CA0002D50C4A121F01E0094AD9
:10046000443A12680A4200D001207047C10002D508
:1004700006490860704703494439486070470000E6
:100480008000024044000240F8FFFDBF0404024027
:100490003B4900200860091D0860091D0860091D0E
:1004A00008603749374814310860704730B58279A1
:1004B000354B01687AB3324A14688C431460111DBD
:1004C0000A680468A2430A6001791944D1F800243B
:1004D00004682243C1F80024294908310A680468E5
:1004E000A2430A600A1D14680568AC43146044798D
:1004F000102C07D0E118D1F8002400680243C1F89D
:10050000002430BD0B68046823430B601168006849
:100510000143116030BDFFE700791844D0F8002492
:100520008A43C0F80024F5E70021016001710C2224
:10053000427181717047124910310A6802430A60A2
:10054000704701460E4A0020143212680A4200D059
:10055000012070470A49143108607047084A014673
:1005600000201268064B0A4014331B680B4202D06D
:10057000002A00D0012070470149143108607047FB
:1005800000040140FFFF0700000001408100A1F1CD
:10059000C04148B143F2D200C1F800006FF0704092
:1005A0004860C1F8040170474FF0204243F2DB007D
:1005B0001060F3E710B5182440234FF020414FF0AE
:1005C000FC32102805D041F8804F4B608A60CA6029
:1005D00010BD0C664B668A66CA6610BD4FF020409F
:1005E000182140F8A01F002141604FF0FC318160CC
:1005F000C1600161704710B5D0E901121143D0E923
:1006000003231A4311434269114382691143C269AA
:100610001143026A1143426A1143826A1143C26A5A
:10062000114302689200A2F1C0421160816808295A
:1006300007D101688900A1F1C0410A6842F0400277
:100640000A60016BD1E9002342EA03128B688C89AE
:100650001B0243EA04431A430B8A42EA03520B7D0E
:10066000896942EA03620A4301688900A1F1C04135
:100670004A60816AB1F5804F08D000686FF0704120
:100680008000A0F1C040C0F8041110BD416BD1E959
:10069000002342EA03128B680C8A1B0243EA0453CC
:1006A0001A430B7D896942EA036200680A438000AD
:1006B000A0F1C040C0F8042110BD30B5D0E901124E
:1006C0001143D0E903231A431143426941EA42210D
:1006D000826941EA4231C26941F00804D2E900135B
:1006E00041EA03211389127B1B0443EA0262036A75
:1006F0001143D3E9002542EA05221D891B7B2D0405
:1007000045EA03631A4303684FF02040102B04D0DE
:1007100040F8804F8160C26030BD04668166C26669
:1007200030BD10B5D0E9001241EA422281681023A1
:1007300043EA41310A434FF0204141F8A02FC268FB
:10074000D2E9003443EA04231489127B240444EAE6
:10075000026213438B600269D2E9003443EA042346
:100760001489127B240444EA02621343CB6040697B
:10077000D0E9002342EA03220389007B1B0443EAF9
:10078000006002430A6110BD10B500210222C0E9D9
:1007900000128160C16001614161D2028161C0E9E2
:1007A00007125200C0E90921C162036B0F221A60CF
:1007B000036B5A60046BFF23A360046BE260046B5D
:1007C0002261046B6261046BA161446B2260446B23
:1007D0006260446BA360436BDA60436B1A61436BE6
:1007E0005A61406B816110BD1021016000214160A0
:1007F0008160C160016141618161C269FC21116058
:10080000C2695160C2699160C269D160026A1160B7
:10081000026A5160026A9160006AC16070470021FB
:10082000016041608160C268FC211160C268516052
:10083000C2689160C268D16002691160026951604A
:10084000026991600269D160426911604269516038
:10085000426991604069C16070478000A0F1C0406A
:100860000029016802D041F0010101E0644A114011
:10087000016070474FF0204251B1102804D052F867
:10088000800F40F004000AE0106E40F004000AE01F
:100890005B49C91E102804D052F8800F0840106030
:1008A0007047106E0840106670474FF020410028D6
:1008B00051F8A00F02D040F0040002E0504AD21ECE
:1008C0001040086070474FF0204251B1102804D00A
:1008D00052F8800F40F040000AE0106E40F04000F7
:1008E0000AE047493F39102804D052F8800F0840E9
:1008F00010607047106E0840106670474FF020413E
:10090000102802D0D1F894007047486F704710B596
:100910004FF480744FF0204372B1102804D0A042ED
:1009200005D153F8840F04E0586E08430DE053F8E6
:10093000A40F0843186010BD102804D0A04206D1AF
:1009400053F8840F05E0586E8843586610BD53F87D
:10095000A40F8843EEE7034600204FF02042102BFF
:1009600008D0B3F5807F07D0D2F8A4200A4200D087
:1009700001207047526EF9E7D2F88420F6E74FF075
:100980002042102807D0B0F5807F08D052F8A40F7D
:10099000884310607047506E88435066704752F825
:1009A000840FF5E7034600204FF02042102B0CD0B7
:1009B000B3F5807F0BD0D2F8A4200A4202EAD1011D
:1009C00002D0002900D001207047526EF5E7D2F81E
:1009D0008420F2E74FF02042102809D0B0F5807F44
:1009E0000BD052F8A40F00BF20EAD100106070476E
:1009F000506E20EAD1005066704752F8840FF3E73A
:100A0000FEFF0F0010B58B4C2215011B5300A042B6
:100A10002ED00DDC884940181CD0904221D098423D
:100A20003BD10121102000F028FA002110200DE018
:100A3000914224D0994229D0B1F5406F2DD10121A6
:100A40000C02204600F019FA00212046BDE81040B3
:100A500000F013BA0121042000F00FFA0021042055
:100A6000F4E70121082000F008FA00210820EDE752
:100A70000121202000F001FA00212020E6E70121D9
:100A8000402000F0FAF900214020DFE7012180201A
:100A900000F0F3F900218020D8E710BD10B5012146
:100AA000084600F0EAF90021BDE81040012000F0FE
:100AB000E4B9F0B5CA78002502F00F03D20601D5DB
:100AC0008A7813430A784FF00F0E12F0FF0F4FF0A1
:100AD00001021DD0D0F800400F8802FA05F6374019
:100AE000B74211D14FEA850C0EFA0CF724EA07073A
:100AF00003FA0CF43C43CF78282F02D0482F02D0C1
:100B000002E0466100E006616D1C082DE4D304603C
:100B10000C88FF2C1ED944685FF0000606F1080718
:100B200002FA07F50F882F40AF420FD14FEA860C2B
:100B30000EFA0CF7BC4303FA0CF73C43CF78282F8E
:100B400000D14561CF78482F00D10561761C082E71
:100B5000E4D34460F0BD4FF6FF7101800221817043
:100B60000421C17070470246002092680A4200D0FA
:100B700001207047806880B2704702460020D2682A
:100B80000A4200D001207047C06880B270470161FE
:100B90007047416170470AB1016170474161704718
:100BA000C160704741F480328261816182618169F4
:100BB00080697047214B10B51A684FF68074224047
:100BC00042EA00100843186010BD1D49C861704713
:100BD000F0B51A4D6A68440D260184B2C0F301577E
:100BE000B440C0F30343032F05D0C0020AD503204D
:100BF0009840824307E0686822F0706320F07060DC
:100C0000686002E0A24342F0706301B123436B606D
:100C1000F0BD10B58A0721F003040849130F2144E1
:100C20000F228C689A4094438C608A6898400243F3
:100C30008A6010BD0014014000F8FEBF00000140B2
:100C400000002042A348016841F0010101604168B1
:100C5000A14A114041600168A04A11400160016849
:100C600021F480210160416821F4FE0141600021EE
:100C70008160704797490A6822F480320A600A68E6
:100C800022F480220A60B0F5803F07D0B0F5802FB3
:100C900003D1086840F4A02008607047086840F459
:100CA0008030F9E70246002053098A49012B0BD016
:100CB000022B0BD0D1F8241002F01F020123934025
:100CC0000B4200D0012070470968F5E7096AF3E795
:100CD00018B500204FF4A06400903120FFF7E2FF28
:100CE0000099491C009108B9A142F6D13120FFF7C3
:100CF000D9FF002800D0012018BD76490A6822F0EB
:100D0000F80242EAC0000860704775490860704701
:100D1000704A5368084323F47C13184350607047AB
:100D20006F49086670476B4A516821F0030101431F
:100D3000516070476748406800F00C007047654A92
:100D4000516821F0F001014351607047614A5168D8
:100D500021F4E0610143516070475E494A6822F422
:100D6000605242EAC000486070475A4A0029517AEE
:100D700001D0014300E08143517270475849C1F8E6
:100D8000D8007047534A516821F4404101435160F3
:100D900070475049002281F8202081F82020012846
:100DA00002D0042802D1052081F8200070474D4967
:100DB0000860704747490A6A02430A627047494916
:100DC00044390860704730B542494A6812F00C0354
:100DD000454A03D0042B01D0082B21D002604A6879
:100DE0000F23424C03EA1212A35C0268DA4042600D
:100DF0004B68072505EA1323E35C22FA03F38360BB
:100E00004B6805EAD323E35CDA40C26049680323F8
:100E100003EA9131231F595CB2FBF1F1016130BD4E
:100E20004A68022302F4701203EB92424B6813F4F7
:100E3000803F02D04B689B0301D52D4B00E02A4B2D
:100E40005A43CBE7234A0029516901D0014300E00E
:100E50008143516170471F4A0029916901D00143C4
:100E600000E08143916170471A4A0029D16901D09D
:100E7000014300E08143D1617047164A0029D168DF
:100E800001D0014300E08143D1607047114A00293D
:100E9000116901D0014300E081431161704711499C
:100EA0004039086070470E49C86470470949C871E5
:100EB00070470848416A41F0807141627047054AB5
:100EC0000146002092680A4200D001207047014983
:100ED00088727047001002400000FFF8FFFFF6FE26
:100EE000000042428004424200127A0004000020C6
:100EF00000093D0064480021016041608160C160DB
:100F000041628162C162614A8263C163704730B5E8
:100F10005D4B5A6847F6FF618A430178C4680569EA
:100F2000214384682C4321434468406921430143A1
:100F30001143596030BD0021017041608160C16082
:100F40000161416170475249C1F8A00070474E49A4
:100F50000A6822F003020A600A6802430A607047C6
:100F60004948006800F003007047474A0029D16BE8
:100F700001D0014300E08143D163704745490860D7
:100F8000704710B5404A01689160D168CB0AD0E93A
:100F900001142143D0E903400443DB0221431943F8
:100FA000D16010BD0021016041608160C1600161BC
:100FB000704735480069C0B27047334908444069FA
:100FC000704710B5304A0168516241689162D16A38
:100FD00021F0F703D0E902142143D0E9044004438F
:100FE00021431943D16210BD4FF0FF310160002150
:100FF00041608160C1600161416170472248006BBE
:1010000070472148D0F8800070471F49C1F8800020
:1010100070471D48806C70471E4914310860704746
:101020001C491831086070471A491C310860704724
:1010300018492031086070471549C1F8AC01704764
:101040001349C1F8B0017047012181431048C0F82D
:10105000B41170470E49C1F8B80170470A4A0146F9
:101060000020526B0A4200D0012070470649886375
:101070007047054A01460020526B0A4200D0012009
:10108000704701498863704700800140FF07C00036
:10109000000030428C0530420CB5002132480191ED
:1010A0000091026842F4803202604FF4A06302684B
:1010B00002F400320092019A521C0192009A12B975
:1010C000019A9A42F3D10268920333D5012100912B
:1010D00026490A6842F010020A600A6822F00302F8
:1010E0000A600A6842F002020A6041684160416891
:1010F0004160416841F480614160416821F47C11A4
:101100004160416841F4E8114160016841F080713B
:10111000016001688901FCD5416821F0030141604B
:10112000416841F0020141604168C1F38101022937
:10113000FAD10CBD0091FEE70B48016841F00101B6
:10114000016041680A4A114041600168094A114042
:101150000160016821F480210160416821F4FE01F1
:1011600041600021816097E70010024000200240AA
:101170000000FFF8FFFFF6FE08B54FF4C060FFF770
:1011800055F806208DF8000001208DF801008DF83B
:1011900002008DF803006846FFF74DF808BDFFF721
:1011A000CBFFFFF7E9FF264801F01FFE25488169C4
:1011B00041F0010181612448416821F0E061416012
:1011C000416841F00071416004F044F903F0A0FA75
:1011D0001E48FF2101224160002101601CA11D4821
:1011E00002F0F1FB18B3002003F0D8FF642001F0F7
:1011F00022FE012003F0D2FF642001F01CFE00203B
:1012000003F0CCFF642001F016FE012003F0C6FFBE
:10121000642001F010FE002003F0C0FF642001F004
:101220000AFE012003F0BAFF642001F004FE002052
:1012300003F0B4FF03F0FDFC002003F0FEFFFEE727
:1012400000A24A04001002400000014050000020AB
:10125000303A00008800002070477047FEE7FEE744
:10126000FEE7704770477047704770477047704798
:1012700070477047704710B50120FFF76FF90028DD
:1012800006D00120FFF778F9BDE81040FFF754BF02
:1012900010BD704770477047704770477047704780
:1012A0007047704770477047704770477047704786
:1012B0007047704770477047704770477047704776
:1012C0007047704770477047704770477047704766
:1012D0007047704770477047704770477047704756
:1012E0007047704770477047704770477047704746
:1012F00070477047704770477047704710B5FA489D
:101300002A24416B11F0450FFBD0480702D5032476
:10131000042003E0C80705D001242046FFF7A6FEFD
:10132000204610BD40F2FF50F8E72DE9F84F0120AC
:101330002A25ADF80000FFF713FEB8B3DFF8AC9331
:10134000D9F8040004286DD0E94C4FF0C00A0026FB
:101350000220C4F808A0C4E900604FF48068C4E922
:1013600003682046FFF70DFEFFF7C8FF05462A2851
:101370001ED10020FFF721FEA4F1280738600420C9
:10138000FFF71BFE78600820FFF717FEB8600C20FF
:10139000FFF713FEF860D9F804004F4650B101285A
:1013A00008D0062806D0022804D014E0FFE7252044
:1013B000BDE8F88F0320E4E80260402084E84101A2
:1013C000CB48083CFFF7DDFD6946032001F046FCF1
:1013D00005462A28ECD17868042823D0BDF80000FF
:1013E000B860000420600920C4E9010AC4E9036868
:1013F000BF48FFF7C6FDFFF781FF05462A28D7D172
:101400000020FFF7DAFDBA4C383C20600420FFF7DB
:10141000D4FD60600820FFF7D0FDA0600C20FFF72E
:10142000CCFDE0602846C3E770B5AF4905462A24E5
:10143000486B10F0450FFBD0410702D50324042070
:1014400003E0C00704D001242046FFF70FFE59E057
:10145000FFF7AFFDA8422BD140F2FF50FFF706FE89
:101460000020FFF7AAFDA34908424BD0002801DA6B
:101470001C2070BD410001D5092070BD810001D53F
:101480000A2070BDC10001D50B2070BD010101D53E
:101490000C2070BD410101D50D2070BDC10101D5E9
:1014A0000E2070BD010201D50F2070BD410201D593
:1014B000102070BD810201D5112070BDC10201D57F
:1014C000122070BD010301D5132070BD410301D569
:1014D000142070BD810301D5152070BDC10301D555
:1014E000162070BD010401D5172070BD410401D53F
:1014F000182070BD810401D5192070BD000701D5E9
:101500001A2070BD204670BD2DE9F05F78484FF07D
:1015100000091838B2210170C0F80490C0F8089092
:10152000C0F80C90C0F81090C8464F46C0F8149010
:10153000FFF7EDFC0320FFF70AFD0120FFF703FD95
:101540006B4C4FF48065204627606760A760C4E954
:101550000375FFF716FD42F2107A564601E0761E3B
:101560001BD08020FFF77AFD0028F8D0AEB140F202
:10157000FF50FFF77BFD4FF4D5702060211D082040
:101580004026256181E8C1005948FFF7FAFC564A18
:101590005046516B4FF0370B05E00320BDE8F09F3C
:1015A0005149496B401E11F0450F11D008B1480751
:1015B00011D50420FFF75AFDA660C4E9007BC4E9F9
:1015C00003754B48FFF7DDFC3720FFF72DFF0CE0DC
:1015D0000028E5D1EDE7480602D54020FFF746FD9B
:1015E000424801214FF080484160A660C4E9007B79
:1015F000C4E90375BA463E48FFF7C3FC3720FFF73E
:1016000013FF07462A2841D1A660C4E900ABC4E90C
:1016100003A557463648FFF7B4FC3720FFF704FF11
:101620002A28BBD1344948EA01002060211D292025
:10163000256181E8C1002E48FFF7A3FC2A492A272B
:10164000486B10F0450FFBD0400704D5032704205A
:10165000FFF70CFD1AE040F2FF50FFF707FD0020F6
:10166000FFF7ABFCC10F09F1010903D14FF6FF7180
:101670008945C9D34FF6FF72914501D31B208DE7F1
:1016800010F0804F02D0194802214160384685E7AA
:1016900010B501F018FB01218802FFF7D3FB0121EF
:1016A0000220FFF7CFFBFFF725FCFFF72DFF2A28CD
:1016B00012D1FFF73AFE04462A280DD10C49012029
:1016C0001839002208704A608A60CA600A610846B8
:1016D0004A61FFF71CFC204610BD10B52A240020EB
:1016E000FFF735FC204610BD0080014014000020AB
:1016F000F002002008E0FFFD000010802DE9F04717
:10170000FA49DFF8EC834FF02A0C4D6880F84E5010
:101710000989A0F84C10D8F800100A0E930903703C
:10172000C2F38303437002F0030282700A0CC2709A
:101730000A0A02714171D8F80440210E0901C180E2
:10174000C288C4F3074142EA1112C28001F00F01BE
:101750000172C4F30721CA094272C1F38012827276
:10176000C1F34012C272C1F3001202734FF00009BC
:1017700080F80D9042464FF0010A9668330EC6F38A
:101780000742C6F3072725B1012D02D0022D2BD029
:101790003CE08907090D0161E1B2046944EA810175
:1017A0000161016941EA93110161C3F3C20101754D
:1017B00003F00701417551098175C2F38201C175BA
:1017C0009107490F0176027E394642EAD11202762C
:1017D0000269037E521C9B1C047A9A400AFA04F3A5
:1017E0005A43C0E9112311E0A106890A0161016988
:1017F00041EA03210161016911430161026939462E
:10180000521CD20442644FF400728264C1F380120D
:1018100042768906490E00F81A1FF1B210F8022B21
:1018200042EAD11200F8022C01F07F0100F8011CFD
:10183000D8F80C20110ECB090370C1F3411343708B
:10184000C1F3820383708907090FC170C378C2F3A3
:10185000074143EA9113C370C1F34013037180F849
:10186000059001F001018171C2F30721CB09C37119
:10187000C1F380130372C1F340134372C1F3001329
:101880008372C1F38103C37201F003010173C2F3D8
:1018900046014173534680F80EA0954A10321168F4
:1018A0000C0E04740C0C24024482458AC1F30724F4
:1018B0002543458209064161516845690C0E45EA98
:1018C000044444614569C1F3074445EA0424446182
:1018D0004569C1F3072425434561017691680C0EE3
:1018E00044760C0C2406C461C569C1F3072445EA9B
:1018F0000444C461C469C9B244EA0121C161D16828
:10190000C46944EA1164C46190F82040C1F30742FD
:1019100044EA121480F820401207120D4284448CCD
:10192000C1F3072214434484C1F3460180F8241014
:1019300080F825306046BDE8F0872DE9FC5F6C4CEF
:101940000025383400954FF4806801954027C4F88D
:101950001080C4E902750E464FF0080B1021C4E94F
:1019600000B1A9462046FFF70CFB1020FFF75CFDF5
:101970002A284DD15D48BA464F46008900042060B0
:101980003720C4E9010AC4E903982046FFF7F9FAB1
:101990003720FFF749FD2A283AD104F114005549B0
:1019A000C0E9001B302181600221C0E90317012139
:1019B0004161FFF706FB3320C4F808A0C4E90070BA
:1019C000C4E903782046FFF7DCFA3320FFF72CFD4B
:1019D00004462A281CD1484F4FF4001AE94640F229
:1019E0002A68786B10EA080F0AD15046FFF736FBD9
:1019F0000028F6D0FFF705FB49F825006D1CF0E73D
:101A00000820FFF72BFB28B10820FFF72FFB04204D
:101A1000BDE8FC9F0220FFF721FB20B10220FFF769
:101A200025FB0220F4E72020FFF718FB20B120203F
:101A3000FFF71CFB0620EBE74FF400752846FFF785
:101A40000DFB20B12846FFF711FB0720E0E740F22D
:101A5000FF50FFF70BFB009800BA7060019800BAC6
:101A600030602046D4E72DE9FC47002580460095EC
:101A700028460195FFF7A1FA800102D50E20BDE8A6
:101A8000FC871A4F6946388980B2FFF756FF2A282B
:101A9000F5D1174C37203834402601994FF0060A0B
:101AA0004FF48069B8F1010F28D0C9033ED53989B8
:101AB000C4F810900904C4E90010C4E90265204686
:101AC000FFF75FFA3720FFF7AFFC2A28D7D1C4E928
:101AD000005AC4F8109000BFC4E9026504483830C9
:101AE000FFF74FFA0620FFF79FFCC8E7140000201D
:101AF000B8020020FFFF0F0000800140490315D508
:101B00003989C4F810900904C4E90010C4E90265D9
:101B1000FD48FFF736FA3720FFF786FC2A28AED1BA
:101B20000220C4F81090C4E9000AD5E72520A6E7F2
:101B30002DE9F0410146F5482A264068032816D0D1
:101B400018B1012801D002282AD1B1F5805F0ED04A
:101B5000ED4C4FF4006800250127183C41450FD19A
:101B60000120FFF780FF06462A2803D018E027202F
:101B7000BDE8F08127706560A560C4E903580AE0FC
:101B80000020FFF770FF06462A2809D127706560FC
:101B9000A560E5602561DC4865611838FFF7B7F995
:101BA0003046E5E72A2130B1012804D0022802D0CE
:101BB000262108467047D54AD060FAE7D24910B5C9
:101BC000086007204860402088600020C8604FF40B
:101BD000806008610846FFF7D4F9BDE8104007208F
:101BE00022E470B505468CB00C46C948FEF727FCC8
:101BF000C84E00213046FEF7FFFBC748CDE900057F
:101C00000020A108CDE902018021CDE9040189006D
:101C100006918900CDE907108900CDE909106946D0
:101C20003046FEF7BFFB01213046FEF7E5FB0CB066
:101C300070BD2DE9F84F14460D0006467ED0DFF842
:101C4000CC922A2089F800000027C9F81870DFF824
:101C5000B882B24908F11408C9F81070C8E9001731
:101C6000C8F80870C8F80C70C8F810704046C8F87A
:101C70001470FFF7A6F90020FFF780F90020FFF7A6
:101C80009CF9800102D50E20BDE8F88F9F484FF4E3
:101C9000007B4068022853D0601EB0F5006F4DD223
:101CA000601E04424AD1204601F064F8DFF85892E1
:101CB000009048461021C0E900414FF0400AC9E9B0
:101CC00002A78901C9F81010FFF75BF91020FFF790
:101CD000ABFB2A28D8D19148C8E90004009800013C
:101CE000C8F808000220C8E903070120C8F814005A
:101CF00009F11400FFF765F9DFF810824846112159
:101D0000C8E90447C8F82450C0E90061C9E902A73E
:101D10004FF48061C9F81010FFF733F91120FFF775
:101D200083FB06462A28AFD1D8F80C004746022884
:101D300017D0012856D080B375E0FFE72620A3E72F
:101D40005C46760AACE74846FFF788F978B100248C
:101D5000FFF757F945F82400641C082CF8D3203508
:101D600005E06D4F4FF40049803F40F22A68786BE0
:101D700010EA080FE7D00820FFF770F920B108201B
:101D8000FFF774F904207FE70220FFF767F928B115
:101D90000220FFF76BF9022076E732E02020FFF700
:101DA0005DF920B12020FFF761F906206CE75C4661
:101DB0005846FFF753F948B12046FFF757F9072077
:101DC00062E700BFFFF71DF901C501E04FF4001401
:101DD0002046FFF743F90028F4D140F2FF50FFF707
:101DE00045F920E0012148F22A30FFF7BEF8B86932
:101DF00010B938782A28FAD038782A2813D03878B9
:101E000042E7012140F22A30FFF7AFF80120FFF747
:101E1000B5F821462846FFF7E4FE414C2046FEF780
:101E200000FB0028FAD030462EE72DE9F84F1E4679
:101E300014460D00804647D0DFF8D0902A2189F85B
:101E400000100027C9F818702F4834491430C9F819
:101E50001070C0E900178760C76007614761FFF72E
:101E6000B0F80020FFF78AF80020FFF7A6F88001FD
:101E700001D50E2008E7D9F80400022826D0601EFC
:101E8000B0F5006F20D2601E04421DD1204600F044
:101E900071FF00901C484FF0400B1021C0F808B0B3
:101EA000C0E900418901C0E90371BA46FFF769F84A
:101EB0001020FFF7B9FA07462A28DBD1012E51D9A5
:101EC0006643B6F1007F06D32620DDE64FF40074AA
:101ED0004FEA5828D7E74C46C9F8245001210A4850
:101EE000C4E9046114300D4AC0E90026009AD146C5
:101EF000120182600222C260C0E904A15746FFF7C6
:101F000060F841460EE00000F002002014000020BE
:101F100000F000104404024080800140FFFF0F00E9
:101F200000200010DFF858844FF4806A4046C8F85B
:101F300000101221C8F804104021C8E90217C8F89F
:101F400010A0FFF71EF81220FFF76EFA07462A28A6
:101F500090D1E06840F22A32022814D001286CD0D7
:101F600000287AD091E000BF4FF40040FFF776F8E8
:101F700050B10026FFF745F845F82600761C082EDC
:101F8000F8D3203500E09346FE48406B10EA0B0F73
:101F9000EAD00820FFF762F820B10820FFF766F8C2
:101FA000042071E60220FFF759F820B10220FFF764
:101FB0005DF8022068E62020FFF750F820B12020CD
:101FC000FFF754F806205FE64FF400763046FFF73F
:101FD00045F848B13046FFF749F8072054E600BFFE
:101FE000FFF70FF801C501E04FF400163046FFF788
:101FF00035F80028F4D14FF48070FFF72FF8B8B10E
:10200000606818B1022801D0012811D140460C2285
:10201000C0E900924022C8E90229D948C8F810A0B6
:10202000FEF7AFFF0C20FFF7FFF907462A28B8D1CB
:1020300040F2FF50FFF71AF827E0012148F22A305A
:10204000FEF793FFA06910B920782A28FAD02078EB
:102050002A281AD0207817E6FFE701211046FEF75C
:1020600084FF0120FEF78AFF31462846FFF7B9FDBD
:10207000C54D2846FEF7D5F90028FAD0A0690028FA
:10208000E5D120782A28F9D0E1E73846FCE57CB58F
:1020900004460022BD48009201920089B84900041C
:1020A0002A2508600D2048604020C1E90202000195
:1020B00008610846FEF765FFB248416B019111F0D7
:1020C000450FFAD00198400702D50324042004E00C
:1020D0000198C00705D001242046FEF7C7FF20461F
:1020E0007CBDFEF766FF01900D2838D140F2FF500D
:1020F000FEF7BCFF0020FEF760FF0090C0F3432016
:102100002070A349009808425DD00098002801DAA9
:102110001C207CBD400001D509207CBD00988000BA
:1021200001D50A207CBD0098C00001D50B207CBDE4
:102130000098000101D50C207CBD0098400101D51C
:102140000D207CBD0098C00101D50E207CBD0098FB
:10215000000201D50F207CBD0098400201D510205F
:102160007CBD0098800201D511207CBD0098C00282
:1021700001D512207CBD0098000301D513207CBD41
:102180000098400301D514207CBD0098800301D540
:1021900015207CBD0098C00301D516207CBD009899
:1021A000000401D517207CBD0098400401D51820FB
:1021B0007CBD0098800401D519207CBD00980007E3
:1021C00001D51A207CBD28467CBD70B505468CB073
:1021D0000C467048FEF733F96F4E00213046FEF78B
:1021E0000BF9684880218030CDE90005102002906D
:1021F000A00803900020CDE9040189000691890020
:10220000CDE907108900CDE9091069463046FEF78F
:10221000C9F801213046FEF7EFF808E52DE9FC5F2B
:102220004FF0000714460D0080468DF800703E46C2
:1022300067D0DFF858912A2189F80010C9F8187082
:10224000DFF83CB155490BF1140B5846C9F8107032
:10225000C0E90017CBF80870CBF80C70CBF8107001
:10226000CBF81470FEF7ADFE0020FEF787FE0020CD
:10227000FEF7A3FE800102D50E20BDE8FC9FD9F831
:10228000040002283FD0601EB0F5006F39D2601EF6
:10229000044236D1204600F06DFDDFF8E4A0019045
:1022A00050461021C0E900414021CAE90217090146
:1022B000CAF81010FEF765FE1020FFF7B5F82A28BF
:1022C000DBD13248D1460089010450464FF00D0A57
:1022D000C0E9001A402181600021C1604FF4806193
:1022E0002748C9F81010FEF74CFE0D20FFF79CF8A8
:1022F0002A28C2D10020FEF760FE284F4FF0000AC6
:1023000020E02620B9E74FF400744FEA5828BEE7D2
:102310001E487F1E00890104C9F800100D21C9F86C
:1023200004104021C9E9021A09011548C9F8101022
:10233000FEF727FE0D20FFF777F82A289DD1002011
:10234000FEF73BFEC00502D4002FE1D141E03FB3D0
:1023500048461821C0E900814021C0E9021A09015C
:102360000161D1460648FEF70CFE1820FFF75CF825
:102370002A2882D1DFF81480084A4746584610E0E0
:10238000F002002000800140002000101400002016
:1023900008E0FFFD00F0001044040240FFFF0F00C2
:1023A00017E0C8F82050C7E90449C0E90024019AA1
:1023B00001211201C0E90229CBE90491F848FEF796
:1023C00000FEF86802282DD0464601285AD0D8B31E
:1023D00080E0292051E700BF4FF48040FEF73EFE29
:1023E000F8B1D8F81000801B20280FD281074FEADF
:1023F000900700D07F1C002405E02868FEF705FE4A
:10240000641C2D1D361DBC4210D2F6E75FF000049F
:1024100055F82400FEF7F9FD641C082CF8D320358C
:10242000203603E0DFF87C9340F21A6AD9F83400D2
:1024300010EA0A0FD0D00820FEF710FE28B10820BD
:10244000FEF714FE042018E72BE00220FEF706FE3C
:1024500020B10220FEF70AFE02200EE71020FEF750
:10246000FDFD20B11020FEF701FE052005E74FF429
:1024700000742046FEF7F2FD60B32046FEF7F6FD3D
:102480000720FAE6012144F21A30FEF76EFDB0692A
:1024900010B930782A28FAD030782A281AD0307823
:1024A000EBE6012140F21A30FEF75FFD2146284697
:1024B000FFF78BFE0120FEF761FDBB4C2046FDF7C8
:1024C000B0FF0028FAD0B0690028E5D130782A287A
:1024D000F9D0E1E740F2FF50FEF7C8FD6846FFF78C
:1024E000D6FD2A28AFD19DF800100729F6D006297D
:1024F000F4D0C2E62DE9FC5F81464FF0000098461B
:1025000017460C008DF8000006465DD0A74D2A2125
:1025100029708246A861A249A54A2861C1E9002024
:102520008860C860086148610846FEF74AFD0020DF
:10253000FEF724FD0020FEF740FD800101D50E20AE
:102540009BE66868022841D0781EB0F5006F3BD248
:10255000781E074238D1384600F00CFC01909048B4
:1025600010211438C0E900714021C0E9021A0901A4
:102570000161FEF706FD1020FEF756FF2A28DFD185
:102580008A48DFF81CA24FF4806B0089AAF1140A74
:102590000104CAF800100D21CAF804104021CAF83D
:1025A00008100021CAE9031B5046FEF7EAFC0D2083
:1025B000FEF73AFF2A28C3D1B8F1010F6ED908FB04
:1025C00007F5B5F1007F06D3262056E64FF40077D5
:1025D0004FEA5929BCE7754F786818B1012801D036
:1025E000022828D138890104CAF800103721CAF816
:1025F00004104021CAF8081000216948CAE9031BE9
:102600001438FEF7BEFC3720FEF70EFF2A2897D1BC
:1026100050461721C0E900814021CAF80810002166
:102620005F48CAE9031B1438FEF7ABFC1720FEF71E
:10263000FBFE2A2884D150461921C0E900914FF0B1
:1026400040090021CAE9029155484FF480611438CD
:10265000CAF81010FEF795FC1920FEF7E5FE2A28AF
:10266000B3D101223C624E48C7E904525049C0E947
:10267000001501994FF0000B0901C0E9021BC0E9E8
:1026800004B2B846FEF79DFCF86840F21A32022800
:102690002BD04646012874D0002871D0A3E000BF9B
:1026A0004FF48040FEF7DAFCF8B1D8F81000801B38
:1026B00020280BD35FF0000554F82500FEF7A5FC99
:1026C0006D1C082DF8D3203420360EE081074FEA28
:1026D000900700D07F1C002505E02068FEF795FCE0
:1026E000241D6D1C361DBD42F7D32E48406B40F2B1
:1026F0001A310842D4D00820FEF7B0FC20B10820DF
:10270000FEF7B4FC0420B8E50220FEF7A7FC20B1D8
:102710000220FEF7ABFC0220AFE51020FEF79EFC86
:1027200020B11020FEF7A2FC0520A6E54FF40074AE
:102730002046FEF793FC20B12046FEF797FC0720C9
:102740009BE54FF48070FEF789FC98B3D8F804003D
:1027500018B1012801D0022845D159460C228AE837
:1027600006024FF480610E48CAE903B11438FEF73F
:1027700008FC0C20FEF758FE2A28C4D133E000E004
:1027800019E0012144F21A30FEF7EFFBB06910B9ED
:1027900030782A28FAD030782A2824D030786CE58E
:1027A00004030020008001400020001014000020DD
:1027B000FFFF0F0017E001211046FEF7D6FB0120B6
:1027C000FEF7DCFB29462046FFF7FFFCFD4C2046C8
:1027D000FDF727FE0028FAD0B0690028DBD1307859
:1027E0002A28F9D0D7E740F2FF50FEF73FFC6846B1
:1027F000FFF74DFC2A2886D19DF800100729F6D056
:102800000629F4D039E5F048406B10F4405000D070
:1028100001207047ED4810B500210C22C0E90012DC
:102820004022C0E9022111010161FEF7AAFBBDE8C7
:1028300010400C20FEF7F8BD2DE9FC478046E34828
:102840000026383801968DF8006040680F46000D6C
:102850003546800602D42520BDE8FC87DA4840686A
:10286000DB49C0B2801CB1FBF0F001900020FEF704
:10287000A4FB800101D50E20EEE7D648D34C4FF0E3
:10288000400A40684FF48069022805D038B1012819
:1028900005D0022803D021E04FEA58287F0A2020E3
:1028A000C4E90080C4F81090C4E902A5D046C74826
:1028B000FEF767FB2020FEF7B7FD2A28CCD12120A8
:1028C000C4F81090C4E90070C4E90285BF48FEF75F
:1028D00058FB2120FEF7A8FD2A28BDD1204626213D
:1028E000C0E90051C4E902A5B848C4F81090FEF749
:1028F00048FB2620FEF798FD2A28ADD100E0761C83
:1029000001988642FBD36846FFF7C1FB2A28A3D172
:102910009DF800100729F6D00629F4D09CE770B581
:1029200004001CD0AB48A9490089000408600D20B0
:102930004860402088600020C8604FF480600861D3
:102940000846FEF71EFB0D20FEF76EFD05462A2801
:1029500004D10020FEF731FB2060284670BD262000
:1029600070BD2DE9F04704460020FEF726FB8001EC
:1029700002D50E20BDE8F087944D40261020E5E8F2
:10298000026000274FF4806885E8C0018F48083D49
:10299000FEF7F7FA1020FEF747FD2A28EAD18D4806
:1029A0000089000401C5372085E8C10187482D1F33
:1029B000FEF7E7FA3720FEF737FD2A28DAD18348F9
:1029C00085491430C0E90016602181600221C0E908
:1029D000031701214161FEF7F4FA0D20E5E80270CA
:1029E0007A4885E8C001FEF7CCFA0D20FEF71CFD01
:1029F00006462A28BED1744F4FF4004940F22A6897
:102A0000786B10EA080F0ED14846FEF727FB002826
:102A1000F6D00025FEF7F5FA44F825006D1C082DC8
:102A2000F8D32034ECE70820FEF718FB20B108208B
:102A3000FEF71CFB04209DE70220FEF70FFB20B1F0
:102A40000220FEF713FB022094E72020FEF706FB8E
:102A500020B12020FEF70AFB06208BE74FF400751B
:102A60002846FEF7FBFA48B12846FEF7FFFA072092
:102A700080E700BFFEF7C5FA01C401E04FF400157E
:102A80002846FEF7EBFA0028F4D140F2FF50FEF79B
:102A9000EDFA0020B4F1400454F8201009BA44F8CB
:102AA0002010401C1028F7D3304663E72DE9F04191
:102AB000484D0024E868012841D1C003FEF7D9FA47
:102AC00060B100BFFEF79DFA696A41F82400641CFA
:102AD000082CF7D3686A203068622DE04FF48040FC
:102AE000FEF7C7FA58B3E9692869411A202918D2B4
:102AF000E969411A8907E969A0EB01004FEA9006EC
:102B00000CD0761C0AE0286A0068FEF77EFA286A74
:102B1000001D2862E869001DE861641CB442F2D31C
:102B20000DE0286A50F82400FEF76FFA641C082CA8
:102B3000F7D3286A20302862E8692030E8614FF432
:102B400080763046FEF795FA00244CF23A3848B3C6
:102B5000E86890B177033846FEF780FA68B1E86913
:102B60002969884209D2FEF74CFA0146686A02C018
:102B70006862E869001DE861EDE7686901280ED028
:102B80002A2028703046FEF77CFA00214046FEF7E6
:102B9000ECF90120A861EC612878BDE8F081FFF72D
:102BA00039FEEEE70220FEF764FAB8B10220FEF724
:102BB00068FA00214046FEF7D8F9EC61022028703F
:102BC000EBE700000020001000800140F002002030
:102BD0004019010014000020FFFF0F000820FEF73D
:102BE00048FA50B10820FEF74CFA00214046FEF7A3
:102BF000BCF9EC6104202870CFE72020FEF739FAF9
:102C000050B12020FEF73DFA00214046FEF7ADF915
:102C1000EC6106202870C0E71020FEF72AFA50B1B8
:102C20001020FEF72EFA00214046FEF79EF9EC61D7
:102C300005202870B1E74FF400763046FEF719FA08
:102C400050B13046FEF71DFA00214046FEF78DF9DF
:102C5000EC6107202870A0E72A209EE770B50C469B
:102C6000494906462A25486B10F0450FFBD041071D
:102C700002D50324042003E0C00705D00124204628
:102C8000FEF7F4F9204670BDFEF793F9B04212D179
:102C900040F2FF50FEF7EAF90020FEF78EF910F43B
:102CA000604F03D0810404D5132070BD000C208038
:102CB00007E0410401D5102070BD000401D50F20AC
:102CC00070BD284670BD2DE9F84301213020FEF784
:102CD000C2F84FF48850ADF800000326DFF8AC804E
:102CE0008DF8026018248DF8034069464046FDF7D0
:102CF000E0FE274F0425ADF8005069463846FDF741
:102D0000D8FE012144F26C00FEF7A5F82020ADF8B2
:102D1000000010208DF803008DF8026069461D4800
:102D2000FDF7C7FE4820ADF8000069463846FDF7BC
:102D3000C0FE4FF46066ADF8006069464046FDF79E
:102D4000B8FEE801ADF800008DF80340124C69466A
:102D50002046FDF7AEFE2015ADF800008DF80350BB
:102D600069462046FDF7A5FE31464046FDF70FFFB8
:102D7000BDE8F883002102E04008491CC9B20128DF
:102D8000FAD1084670470000008001400010014061
:102D900000140140000C014000080140C2084FF43B
:102DA0007A7042434FF0E0204A4342610021816142
:102DB000016941F0030101617047F1B5009806F027
:102DC00089FD0D4604460022254B06F0B7FB06F0B0
:102DD0003DFD244E3060204629460022224B06F05D
:102DE000ADFB06F033FD7060F8BD11B44FF0E0208C
:102DF00000210161016941F004010161009818BCE2
:102E0000DBE701B517480099006841434FF0E02027
:102E1000416100218161016941F0010101610169A4
:102E2000C903FCD5016921F480310161016921F0F8
:102E30000101016108BD01B581B04FF4FA7201983A
:102E4000400001900020009005E01046FFF7D9FFF8
:102E50000098401C009001998842F6D30CBD0000F8
:102E600080842E413C00002000408F402DE9F0413D
:102E7000044600790027F8B1E56A04F13001607872
:102E800001232A46884601F004FC08B1012713E01B
:102E900000202071206AA169281A88420CD2E678A5
:102EA00008E0A0690123054460782A46414601F004
:102EB000F0FB761E022EF4D23846BDE8F08170B5E4
:102EC0000446C06A0D460026A8420FD02046FFF7F0
:102ED000CDFF06000AD1607801232A4604F13001B3
:102EE00001F0C1FB08B1751E0126E562304670BDD8
:102EF00070B50446FFF7BAFF05004FD120780328CC
:102F000045D16079012842D1420204F1300000210C
:102F1000064601F068FB552084F82E02AA2084F8AA
:102F20002F02522084F8300084F83100612084F8A8
:102F30003200412184F83310722284F8142284F87C
:102F4000152284F8161284F81702206984F81802F2
:102F5000010A84F81912010C84F81A12000E84F880
:102F60001B02E06884F81C02010A84F81D12010C9F
:102F700084F81E12000E84F81F02E2690123521C1D
:102F8000E2626078314601F084FB0020607100222B
:102F90006078114601F093FB00B10125284670BD11
:102FA0004269891E921E8A4201D800207047826AB7
:102FB000807801FB002070472DE9F0410D46044662
:102FC00002290BD36069A84208D920784FF0FF3658
:102FD000012806D002282AD0032835D00126304601
:102FE0006BE7206A05EB550700EB57212046FFF7FA
:102FF00066FF0028F3D1C7F3080020447F1C90F837
:103000003080206A00EB57212046FFF758FF002848
:10301000E5D1C7F30800204490F8301048EA0120B9
:10302000E90701D00609DAE7C0F30B06D7E7206A03
:1030300000EB15212046FFF742FF0028CFD1E8B270
:1030400004EB4000068ECAE7206A00EBD51120464B
:10305000FFF735FF0028C2D140F2FF1000EA8500DB
:10306000204490F83010D0F8310041EA002020F0E0
:103070007046B4E72DE9F04717460D46044602298D
:1030800002D36069A84202D80220BDE8F087217807
:1030900007F0FF084FF00109012920D0022950D084
:1030A0000329F1D1206A00EBD5112046FFF707FF75
:1030B0000028EAD140F2FF1101EA85010A194FF018
:1030C0007043D2F8311003EA0121394302F8301F6E
:1030D0000B0A53700B0C9370090ED17041E0206AFB
:1030E00005EB550600EB56212046FFF7E8FE0028C9
:1030F000CBD1C6F3080020443030761CE90703D05A
:10310000017868F31F1100E03946017084F80490DB
:10311000206A00EB56212046FFF7D1FE0028B4D1EB
:10312000C6F3080121443031EA0702D0C7F3071281
:1031300005E00A78C7F3032302F0F0021A430A708D
:103140000FE0206A00EB15212046FFF7B8FE0028AB
:103150009BD1E9B204EB41013A0A81F8308081F851
:10316000312084F8049090E72DE9F0410F4606469F
:10317000022916D37069B84213D900251FE03946D9
:103180003046FFF719FF04001CD0012C09D0601C49
:1031900009D0002239463046FFF76CFF050011D1F7
:1031A00003E002250EE001250CE03069411C05D04A
:1031B000401C3061707940F00100707127467069E1
:1031C000B842DCD8284678E62DE9F0410F000546E4
:1031D00005D0FFF7F1FE022808D201206DE6EE6867
:1031E00016B16869B04207D8012605E0411CF5D048
:1031F00069698142F2D83E4634466869641CA0423F
:1032000002D80224022E0AD321462846FFF7D4FE14
:1032100038B1411CE2D00128E0D0B442EDD1002009
:103220004BE66FF0704221462846FFF723FF30B986
:1032300057B1224639462846FFF71CFF20B1012826
:103240000DD00124204638E6EC602869411CF9D0F5
:10325000401E2861687940F001006871F2E74FF084
:10326000FF34EFE770B5C18083680D460446012B3B
:1032700035D020684169994231D923B901780329B1
:1032800004D1436A13B18078060111E00189A94293
:1032900025D9406A12E000BFFFF78EFE0346401CAE
:1032A0001BD0022B1BD320684069984217D9AD1B55
:1032B0002068B5421946EFD2FFF772FEE36070B1A5
:1032C00000EB1510206105F00F013022206802EBA1
:1032D000411108446061002070BD012070BD0220D2
:1032E00070BD2DE9F041C6880446761C30040F46B7
:1032F000000C2CD0206950B3310759D1401C2061FB
:10330000E168206829B18278521E12EA161F04D0A3
:103310004EE00089B0421AD94AE0FFF74DFE05465B
:10332000012818D9681C2FD020684169A94239D8D2
:103330006FB1E168FFF748FF05000AD0012D0AD000
:10334000681C21D02068FFF791FDE8B905E0042052
:10335000B3E50720B1E50220AFE520684FF4007225
:103360000021303001F03FF929462068FFF718FEB0
:10337000216800274FF00108C8620CE080F8048043
:103380002068FFF773FD08B1012096E52068C16A47
:10339000491C7F1CC16220688178B942EED8C16A9D
:1033A000C91BC162E56029462068FFF7F9FD20616D
:1033B000E68006F00F013022206802EB411108443C
:1033C0006061002079E570B504460D46042020E0D8
:1033D0002068FFF774FD08BB61690A78AAB1C97A51
:1033E000E52A01F03F010AD02E2A08D00F2906D085
:1033F00021F0200108290AD00021A94210D0002183
:103400002046FFF76EFF20B108E0042006E001210E
:10341000F3E721690029DBD1002801D000212161D7
:1034200070BD70B504460021FFF71CFF0DE0216957
:103430002068FFF744FD50B960690078E52809D09D
:1034400040B101212046FFF74CFF0028EFD00428AF
:1034500007D007E021692068FFF731FD050003D0A0
:103460000FE0072005460CE020220021606901F0F2
:10347000BAF8D4E905010B2201F0ACF8216801206B
:103480000871284670BD70B50446C188FFF7EAFE92
:10349000050010D121692068FFF711FD05000AD150
:1034A00020220021606901F09EF86169E520087022
:1034B000216801200871284670BD30B5036901F10B
:1034C0000902EBB1406900232E25C45C5B1C202C53
:1034D00008D0052C00D1E524092B01D102F8015BAD
:1034E00002F8014B0B2BF0D3C37A0B72037FD0F899
:1034F0001D4043EA04230B60038B8B80C08AC88085
:103500000020107030BD2DE9F04789460D6800E0BD
:103510006D1C29782F29FBD05C29F9D084690B22F6
:103520002021204601F05FF8002001460B460826C6
:10353000EA5C5B1C202A4CD92F2A4AD05C2A48D04E
:103540002E2A01D0B14208D3082E4FD12E2A4DD1B8
:1035500008210B268006000EEAE7802A01D340F0FE
:103560000300A2F181071E2F02D95F3F1C2F13D841
:10357000EF5C5B1CA7F1400CBCF13F0F04D3A7F13B
:10358000800CBCF17D0F31D2A6F1010C61452DD22A
:103590006254491C67541AE0F9A700E07F1C97F8B1
:1035A00000C0BCF1000F02D09445F7D11EE0A2F19B
:1035B0004107192F02D840F0020007E0A2F161078D
:1035C000192F03D8203A40F00100D2B26254491CAE
:1035D000AEE71D44C9F80050202A01D8042200E0BB
:1035E000002219B12178E52902D003E006204CE53C
:1035F00005212170082E01D18006000E00F0030184
:10360000012901D142F01002C0F38100012801D14B
:1036100042F00802E272002037E573B504460199D2
:1036200008782F2801D05C2801D1491C0191002580
:10363000A56001980078202805D200212046FFF7D8
:1036400011FE65617CBD01A92046FFF75CFF0028E3
:10365000F8D100212046FFF705FEF8B9216920685E
:10366000FFF72DFCD0B961690A782AB1CA7A12072E
:103670000ED40A23A26903E004200FE05B1E06D3E8
:1036800011F8015B12F8016BAD1BF7D000E02DB112
:1036900000212046FFF725FE0028DFD0A169C97A66
:1036A00028B10428CED14907CCD405207CBD4907D8
:1036B000FCD46169C87AC006F7D5206800F09BFF8A
:1036C000A060C0E710B504464FF0FF302268002A22
:1036D00013D0114600E0491C0B78212B0ED33A2B56
:1036E000F9D112F8013B303B0A2B06D28A4204D1B1
:1036F000002B02D1491C1846216010BD002010BDCE
:1037000010B5044600202071401EE0622046FFF7FD
:10371000D6FB08B1032010BDB4F82E02A0F52A4153
:10372000553901D0022010BD94F86600B4F8671036
:1037300040EA01219648B0EB012F08D094F882109E
:10374000B4F8832041EA0221B0EB012F01D100201F
:1037500010BD012010BD2DE9FF474FF000090746BD
:10376000C0F8009016460846FFF7ACFF050002D5EA
:103770000B2004B089E4874850F825408CB13C60A8
:10378000207820B1607800F06AFFC1070BD084F880
:103790000090E8B2607000F03FFFC10708D003203E
:1037A000E7E70C20E5E70EB1400704D40020E0E78E
:1037B0001EB1400701D50A20DBE700252946204637
:1037C000FFF79EFF012822D100206F4604EB001175
:1037D00091F8F22101F5F7712AB10A7AD1F80910AE
:1037E00042EA012100E0002147F82010401C042893
:1037F000ECD3002657F826502DB129462046FFF776
:103800007FFF08B909E00220761C042EF2D30328BA
:1038100001D0E8BB01E00120ABE7B4F83B00B0F514
:10382000007F5CD1B4F846202AB994F85400D4F84B
:10383000551040EA0122A26194F84010E17001297C
:1038400001D002294BD194F83D005143A070F8B14A
:10385000431E184243D1B4F8413023811E073ED1A4
:10386000B4F843602EB994F85060D4F8517046EA29
:103870000726B4F83EC0BCF1000F30D00CEB0107B6
:1038800007EB1317BE422AD3F61BB6FBF0F000E09D
:1038900025E020B3012640F6F678404500D3022605
:1038A0004FF6F678404500D30326801C2F44A762CC
:1038B000AC446061C4E9075C032E12D07BB1614463
:1038C0006162022E18D000F0010100EB400001EB14
:1038D000500000BF00F2FF10B2EB502F0ED20D20AF
:1038E00047E7002BFBD194F85C10D4F85D308000E2
:1038F00041EA03216162EDE74000EBE74FF0FF3062
:103900002061E06080206071032E30D1B4F8600047
:1039100001282CD12046691CFFF7D1FA38BB84F866
:103920000590B4F82E02A0F52A4155391FD194F81C
:103930003000D4F8311040EA01201749884216D1EE
:1039400094F81402D4F8151240EA01201349884271
:103950000DD194F81802D4F8191240EA0120206120
:1039600094F81C02D4F81D1240EA0120E0600949D5
:103970002670091F0888401C0880E08016E70000B8
:10398000222A2B2C3A3B3C3D3E3F5B5D7C7F000076
:103990000046415448000020525261417272416118
:1039A00010B538B1016829B10A781AB1CA8880887F
:1039B000824201D0092010BD487800F050FEC007B7
:1039C000F9D0032010BD17B581B0144602980090BD
:1039D0006846FFF777FE002802DA0B2004B010BD1E
:1039E000F44A002352F8201001B10B70019900290C
:1039F00000D00B7042F8201001D0012C01D0002023
:103A0000ECE7002202A901A8FFF7A5FEE6E72DE9F1
:103A1000F7478BB006000ED04FF0000802F01F07EA
:103A200027F001020CA96846C6F80080FFF793FE54
:103A3000050003D084E009200EB0D8E507A8069061
:103A400068460C99FFF7E9FD059C050001D104B912
:103A5000062517F01C0F4CD055B1042D03D1684634
:103A6000FFF7DFFC0546059C47F0080755B167E006
:103A7000E07A10F0110F01D0072561E0780701D539
:103A800008255DE0380742D500F03DFEA073010A2D
:103A9000E173010C2174000E607484F80B8084F8CB
:103AA0001C8084F81D8084F81E8084F81F802146C5
:103AB000009800F0A0FD81460021204600F0A4FD02
:103AC00000990120B9F1000F08711ED000984946F5
:103AD000D0F82CA0FFF748FB050031D10099A9F1DF
:103AE0000100C86051460098FFF7E9F905000AD0C7
:103AF00026E02DBBE07AC10601D5042520E0B907F8
:103B000001D5C007B8D1380701D547F02007009884
:103B10002146C06AC6E90704B77186F807804746A0
:103B2000009800F068FD3061207FD4F81D1040EA55
:103B30000120C6E90270B76100983060C088B0808B
:103B4000284679E72DE9FC5F044600201860994675
:103B5000154688462046FFF723FF002812D1E0795A
:103B600000280FD1A079C0070BD0D4E90210401A69
:103B700001274FF0020A04F1240B854200D90546C3
:103B800081E00720BDE8FC9FA068C10563D12268E1
:103B90009178491E01EA502111F0FF0609D1C8B100
:103BA00010466169FFF708FA022815D3411C4DD071
:103BB000606161692068FFF7F3F968B130440190F2
:103BC000680A009028D0216832188878824207D885
:103BD000009807E02069E7E784F807A00220D1E712
:103BE000801B0090C3B248784146019A00F03BFD2B
:103BF00060BBA07940060CD5A1690198081A00990C
:103C0000884206D208EB40204FF40072594600F07B
:103C1000E1FC009846022CE0A2690198824218D08B
:103C2000A07940060AD5206801235946407800F063
:103C300030FD58B9A07920F04000A0712068012320
:103C400059464078019A00F00EFD10B1E77101204D
:103C500098E70198A0612089C0F30800C0F50076BC
:103C6000AE4200D92E46011932464046243100F0BA
:103C7000B1FCA068B0443044A060D9F800008119BC
:103C8000AD1BC9F80010002D7FF47EAF002079E74E
:103C90002DE9FC5F884600219946154604461960C7
:103CA000FFF77EFE002806D1E079002803D1A07935
:103CB000800701D4072065E7A16801274A194FF062
:103CC000020A04F1240B8A4273D394E0A068C10570
:103CD00075D122689178491E01EA502111F0FF0642
:103CE00012D108B1616902E0206928B900211046AB
:103CF000FFF76AFA00285CD0012825D0411C55D076
:103D00006061216901B92061A07940060BD5206866
:103D1000012359464078A26900F0BBFCA8BBA079FA
:103D200020F04000A07161692068FFF739F958B1AF
:103D300030440190680A009028D0321820688178B9
:103D40008A4205D8009905E084F807A0022019E707
:103D5000891B0091CBB240784146019A00F099FC52
:103D600098B9A1690198081A009988420AD208EB0B
:103D700040214FF40072584600F02CFCA07920F04E
:103D80004000A071009846022BE00FE0A169019865
:103D9000814212D0D4E9020188420ED22068012368
:103DA00059464078019A00F05EFC30B1E77101207D
:103DB000E8E623E04800002001E00198A0612089A6
:103DC000C0F30800C0F50076AE4200D92E4620446C
:103DD00032464146243000F0FDFBA07940F040001F
:103DE000A071A068B0443044A060D9F800008119E7
:103DF000AD1BC9F80010002D7FF468AFD4E90210A4
:103E0000814200D9E160A07940F02000A07100203B
:103E1000B8E670B50446FFF7C3FD00280ED1A179BE
:103E20008A060BD548060ED52068012304F124012B
:103E30004078A26900F02DFC08B1012070BDA07986
:103E400020F04000A071E1692068FFF738F80028F1
:103E5000F4D1256AE87A40F02000E872207B2877C8
:103E6000A089000A6877E068000CA877E068000E77
:103E7000E8772846216900F0C7FB00F044FCA875EC
:103E8000010AE975010C2976000E68760020A874F5
:103E9000E874A07920F02000A07121680120087149
:103EA0002068BDE87040FFF723B810B50446FFF75F
:103EB000B0FF002806D12046FFF772FD002801D18F
:103EC0000021216010BD2DE9F0470D460446FFF7A3
:103ED00067FD5FEA00086FD1E07900286CD1E068E7
:103EE000A84203D2A179890700D405460027A0681B
:103EF0004FF00109A7600DB322684FF0020A9178D4
:103F00004E0268B1691E401EB1FBF6F1B0FBF6F33C
:103F1000994205D3711E8843A0602D1A61690CE097
:103F2000216949B900211046FFF74EF901460128E1
:103F30003FD0481C4ED021616161D1B926E0A07903
:103F40008007206805D5FFF73FF9010004D1354609
:103F500011E0FFF731F80146481C3BD0012928D970
:103F600020684069884224D96161A068AD1B304453
:103F7000A060B542E3D8A0682844A060E80505D059
:103F80002068FFF70DF8A0B100EB55272089C00588
:103F900025D0A269BA4222D0A07904F124054006B6
:103FA00010D5206801232946407800F072FB88B9BB
:103FB00004E084F807A00220BDE8F087A07920F093
:103FC0004000A071206801233A464078294600F05D
:103FD0004AFB18B184F807900120EDE7A761D4E906
:103FE0000201884204D9E060A07940F02000A0716D
:103FF0004046E1E713B584B0040006D0002205A9CD
:104000006846FFF7A8FB18B11FE0092006B010BDF5
:104010000098206001A8A06120460599FFF7FDFAED
:1040200078B9616931B1C87AC00611D5009800F03D
:10403000E2FAA06000980021C088A0802046FFF727
:1040400011F9042804D00028E0D000212160DDE728
:104050000520FAE710B50446FFF7A2FC002801D1BD
:104060000021216010BDFEB50E460446FFF798FC06
:10407000002817D1BEB1C4F818D000212046FFF7A0
:10408000A2F90025042813D000280BD13146204680
:10409000FFF713FA00212046FFF723F9042801D186
:1040A00000202561FEBD00212046FFF7DBF8FEBDA4
:1040B0002561EBE733B58BB00D4600220BA96846AE
:1040C000FFF749FB040010D107A8069068460B993A
:1040D000FFF7A3FA040008D1059828B12DB12946AD
:1040E0006846FFF7EAF900E0062420460DB030BD2F
:1040F0002DE9F74F14468A46002269462046FFF70D
:104100002AFB24685FEA00084FD1D4E90407B91EEE
:10411000884202D8CAF8000047E094F800900025D1
:10412000B9F1010F01D0266A16E002263146204679
:10413000FEF742FF411C03D0012803D028B105E05F
:10414000012000E00220804628E06D1C6069761C9A
:104150008642EBD322E059B93146761C2046FEF761
:10416000AEFE5FEA000819D104F130004FF400718F
:10417000B9F1020F07D00278D0F8013042EA0322E9
:10418000120106D006E0028802B96D1C801C891E4F
:1041900002E06D1C001D091F7F1EDCD125616079C6
:1041A00040F001006071CAF800504046BDE8FE8F43
:1041B00070B50446FFF7F4FB05003DD1E07918B176
:1041C0000546280005D037E0A079800701D40725EF
:1041D00032E0D4E9020181422ED9E060A17941F0B8
:1041E0002001A17150B161692068FEF7E5FE064625
:1041F000401C0BD0012E0BD065B11CE0216920685A
:10420000FEF7B2FF05460020206113E0012512E011
:10421000022510E020684169B1420FD96FF0704269
:104220006169FEF727FF050005D131462068FEF7DA
:104230009BFF054615B1E571284670BDA079400683
:10424000FAD52068012304F124014078A26900F026
:1042500020FA0028DAD1A07920F04000A071EBE725
:1042600011B591B00024012211A96846FFF773FA35
:1042700000280DD10EA8069068461199FFF7CDF9D8
:10428000002805D1059929B1C87AC20704D00720B2
:1042900012B010BD0620FBE7C00618D5009800F04C
:1042A000AAF9040023D01C22694607A800F092F95D
:1042B000022107A80994FEF7D5FF0028E8D10021C4
:1042C00007A8FFF780F80028E1D00428E0D168466D
:1042D000FFF7D9F80028DBD12CB121460098FEF772
:1042E00043FF0028D4D10098FEF702FED0E7022059
:1042F000CEE72DE9F14F8CB000F005FA0746012218
:104300000CA96846FFF727FA040009D108A806900F
:1043100068460C99FFF781F9040002D0042C02D002
:104320008FE008248DE000210098FEF74DFF060085
:1043300009D0012E09D0701C09D00098FEF796FD17
:10434000040006D063E0072461E002245FE001245A
:104350005DE031460098FEF723FE009D8046303533
:104360004FF400720021284600F03DF90B22202175
:10437000284600F038F92E242C701020E872F8B28C
:104380000790A875C7F3072B85F817B0C7F3074A3E
:1043900085F818A04FEA176985F819903146284624
:1043A00000F032F905F1200020222946074600F0EE
:1043B00011F985F82140009802990078032804D16A
:1043C0000098406A884200D10021384600F01CF96C
:1043D0000098877814E000990120C1F82C8000999A
:1043E00008F1010808710098FEF740FD04000ED1A5
:1043F0004FF400720021284600F0F5F87F1EFFB24E
:10440000002FE8D16846FFF70CF8040004D03146CD
:104410000098FEF7A9FE14E005981021C1720799D3
:10442000817580F817B080F818A080F8199031468F
:1044300000F0EAF80099012008710098FEF758FD95
:1044400004460DB02046BDE8F08F37B58AB015465A
:104450000C4601220AA96846FFF77DF9002816D10B
:1044600007A8069068460A99FFF7D7F800280ED1EA
:10447000059868B105F02701C27A0C408A431443BD
:10448000C4720099012008710098FEF731FD2DE6F5
:1044900006202BE633B599B0012219A90EA8FFF723
:1044A0005AF9002857D10E98019015A814900EA81B
:1044B0001999FFF7B2F800284DD11398F0B300F125
:1044C0000B01152208A800F085F81C220EA901A8EE
:1044D00000F080F81AA8FFF7F5F800283DDB01A8E6
:1044E0001A99FFF79AF850B3042834D101A8FEF7BF
:1044F00098FF00282FD1069C13220DF1220104F110
:104500000D0000F067F89DF82000012540F0200024
:10451000E0720E980571E07AC0062AD503991098CA
:10452000884226D021460E9800F065F801460E9884
:10453000FEF736FD010014D00E9801E00AE00EE00F
:10454000FEF7BDFC0E9A5032002804D150782E2878
:1045500009D00EE004201BB030BD0B20FBE7082083
:10456000F9E70220F7E71046039900F04DF80E989E
:1045700005710EA8FEF787FF0028ECD10E98FEF714
:10458000B7FCE8E713B58AB00C4601220AA96846D1
:10459000FFF7E1F8002819D107A8069068460A99A4
:1045A000FFF73BF8002811D1059888B1A1798175F2
:1045B000E188090AC17521790176A188090A417645
:1045C0000099012008710098FEF792FC0CB010BD14
:1045D0000620FBE704E000BF11F8013B00F8013BB7
:1045E000521EF9D27047C9B202E000BF00F8011BA9
:1045F000521EFBD270470246488B1278032A02D122
:10460000898A40EA0140704781760A0AC2760A0C1C
:104610000275090E4175704710B580B9FDF738F87D
:104620002A280CD13948FDF769F82A2807D13748DC
:10463000B0F84C000004FDF7C1FA2A2801D001208F
:1046400010BD0020FDF774FA2A2804D10020FDF7E0
:10465000A9FA2A2801D0032010BD002010BD00288F
:1046600000D00120704710B50BB110B10AE0042052
:1046700010BD50024FF40072012B05D0FDF7D5FBA1
:104680002A2804D0012010BDFDF7D3FAF8E7002056
:1046900010BD10B50BB110B10AE0042010BD5002DE
:1046A0004FF40072012B05D0FDF724FF2A2804D017
:1046B000012010BDFDF7B2FDF8E7002010BD10B5D8
:1046C000144650B929B101290DD0032907D004207F
:1046D00010BDFEF798F80028FAD0012010BD4FF465
:1046E000007010800DE00948FDF708F82A28F4D181
:1046F00006480269017E007A891C0844521C8240E7
:104700002260002010BD0020704700001C03002024
:1047100010B501F018FA6FF07F40094908600020D9
:1047200048600121074801F0A1F90021064801F085
:104730009DF900F07EFA10BD044908607047000042
:104740005000002000C50008D0A500084C00002043
:104750000146002901DD084670474842FCE702682F
:104760000B6803600A6070472DE9FF4383B003992B
:104770000598401A029004990698401A01904FF04B
:1047800000090298FFF7E4FF05460198FFF7E0FFF4
:1047900085420DDA01A902A8FFF7E1FF04A903A8E9
:1047A000FFF7DDFF06A905A8FFF7D9FF4FF00109C4
:1047B0000298FFF7CDFF029988420DD0029840423F
:1047C000029001984042019005A903A8FFF7C7FF96
:1047D00006A904A8FFF7C3FF029800EBD0714E10A2
:1047E0000198002800DA7642FE480768002428E095
:1047F000019800FB0465002D01DD284600E06842B9
:1048000047F6FF71884205DA029895FBF0F00499AB
:10481000084404E0029895FBF0F0049908448046AF
:10482000B9F1000F06D1039908193A46414601F043
:1048300029F905E0039801193A46404601F022F9AA
:10484000641C02988442D3DD07B0BDE8F083F0B564
:104850000B46016803FB03F4161B944202D30027A6
:104860000760F0BD00BF491C01FB01F5B542FAD35A
:104870004F1E076000BFF4E72DE9F05F07460C46C6
:1048800015461E46DDF828802146284605F0F8FB2F
:1048900002D12046BDE8F09F2146284605F0AAFD3A
:1048A00082463146404605F0A5FD8346514605F057
:1048B00025FB81462146384605F09CFD8346494646
:1048C00005F09AFC8246314605F0AAFAE2E72DE9A6
:1048D000F04F9DB005460E461746DDF8A480781EC1
:1048E00005F03EFC1390781C05F03AFC12902698D7
:1048F00004F0D9FFBC4ABD4BCDE9000105F03AF800
:104900000022BB4BCDE9020104F018FECDE9040101
:1049100004F026FD1190279804F0C5FFB24AB34B6E
:10492000CDE9000105F026F80022B14BCDE90201E6
:1049300004F004FECDE9040104F012FD109011987A
:1049400005F042FACDE9020104F0BAFCCDE9040118
:1049500004F006FD0F90109805F036FACDE902013B
:1049600004F0AEFCCDE9040104F0FAFC0E901198BD
:1049700005F02AFACDE9020104F0D8FBCDE90401E3
:1049800004F0EEFC0D90109805F01EFACDE902013E
:1049900004F0CCFBCDE9040104F0E2FC0C90139987
:1049A000084605F029FC834605F0BAFB0B901299E6
:1049B000084605F021FC834605F0B2FB0A90002072
:1049C000079006900F99139805F016FC14900F9914
:1049D000129805F011FC15900E99139805F00CFC37
:1049E00016900E99129805F007FC17900D991398E0
:1049F00005F002FC18900D99129805F0FDFB199036
:104A00000C99139805F0F8FB1A900C99129805F080
:104A1000F3FB1B90149805F0D7F9CDE9020104F0DF
:104A200017FBCDE9040104F0E1FE0890179805F0AA
:104A3000CBF9CDE9020104F0C7FBCDE9040104F094
:104A4000D5FE0990099C56E0214607A80B9AFFF76E
:104A5000FEFE214606A80A9AFFF7F9FE204605F059
:104A60007FFB8346159905F093FB10D2204605F095
:104A700077FB059019980090189BDDE914120598B2
:104A8000FFF7FAFE834605F02FFB824601E0DDF8D2
:104A900018A0204605F064FB8346169905F078FCC3
:104AA00010D2204605F05CFB05901B9800901A9BE5
:104AB000DDE916120598FFF7DFFE834605F014FBCB
:104AC000814601E0DDF81C902898002808DD0AEBFB
:104AD000050208FB046109EB050001F042F809E05A
:104AE000C9F100035A1908FB0461CAF100035819FF
:104AF00001F037F8641E08988442A5DA1DB0BDE8BD
:104B0000F08F2DE9FF470746884691469A46DDE932
:104B10000C4504F5B47405F5B47503E0A4F5B4745C
:104B2000A5F5B475B4F5B47FF8DA00BF002D01DC4B
:104B3000BDE8FF875A2C15DA002C00DA00245A2D24
:104B400001DA284600E05A2006464FF0FF300121E6
:104B500053464A46CDE90046CDE902104146384663
:104B6000FFF7B5FE5A3D5A3C002D00DCE0E75A2C19
:104B700018DA002C00DA00245A2D01DA284600E069
:104B80005A2006464FF0FF32C4F15A00C6F15A01CE
:104B9000CDE901025346039200914A464146384608
:104BA000FFF795FE5A3D5A3C002D00DCC0E75A2C19
:104BB00014DA002C00DA00245A2D01DA284600E02D
:104BC0005A2006460120811E53464A46CDE900463A
:104BD000CDE9021041463846FFF779FE5A3D5A3C6E
:104BE000002D07E0500000204AD8124DFB2109405B
:104BF0000080664000DC9BE75A2C17DA002C00DAB4
:104C000000245A2D01DA284600E05A2006460122E7
:104C1000C4F15A00C6F15A01CDE90102534603928C
:104C200000914A4641463846FFF751FE5A3D5A3CEC
:104C30007CE710B533484468E0B200F0DFFA10BDFD
:104C400070B504460D462F4829460268204600F0FC
:104C500019FF70BD70B504460D462946204600F088
:104C600076FF064600F07DFC70BD2DE9F04105465B
:104C70000F4616461C46A7420DD1B54205DC32460A
:104C80003946284600F06DFF1BE02A46394630467B
:104C900000F067FF15E0B5420DD1A74205DC2246C2
:104CA0003946284600F082FF0BE03A462146284666
:104CB00000F07CFF05E02346324639462846FFF7E0
:104CC00053FDBDE8F0812DE9F04104460D4616463E
:104CD0001F463B4632462946204600F08CFFBDE881
:104CE000F081FEB505460E461446D4E9021220694D
:104CF000CDE90012029031462846D4E9002300F0A5
:104D0000A0FFFEBD5000002008B501214FF4DE7069
:104D1000FCF7A1F84FF40860ADF8000010208DF802
:104D2000030003208DF802006946FE48FBF7C1FE30
:104D30004FF61840ADF8000010208DF80300032056
:104D40008DF802006946F848FBF7B3FEFF20ADF886
:104D5000000010208DF8030003208DF80200694642
:104D6000F248FBF7A6FE4FF47070ADF8000010207B
:104D70008DF8030003208DF802006946EC48FBF72C
:104D800098FE4020ADF8000010208DF803000320AD
:104D90008DF802006946E748FBF78BFE08BD01B5B8
:104DA00002E00098401E009000980028F9D108BD4C
:104DB00030B500214AE0002245E00020DE4CC2F37D
:104DC000811504EBC504605C8406200E4FF6FC746C
:104DD0002040D94CC2F3011504EBC504645C2043A8
:104DE0008406200E4FF6FC742040D34CC2F381059C
:104DF00004EBC504645C20438406200E4FF6FC746B
:104E0000204002F00304CC4D05EBC404645C204355
:104E1000CA4C24688CB10023C02404EA80133024D7
:104E200004EA80041C44E3B20C2404EAA0041C44F9
:104E3000E3B203EB9014E3B200E00346C04C04EB92
:104E4000C2046354521CFF2AB7DD491C0829B2DB97
:104E500000214AE0002245E00020BA4CC2F381154F
:104E600004EB8504605C8406200E4FF6FC74204041
:104E7000B44CC2F3011504EB8504645C2043840642
:104E8000200E4FF6FC742040AE4CC2F3810504EBBB
:104E90008504645C20438406200E4FF6FC74204099
:104EA00002F00304A74D05EB8404645C2043A34C8B
:104EB00024688CB10023C02404EA8013302404EA5F
:104EC00080041C44E3B20C2404EAA0041C44E3B2B2
:104ED00003EB9014E3B200E003469B4C04EB820426
:104EE0006354521CFF2AB7DD491C0429B2DB30BDD4
:104EF00010B540208E491031086002209349087097
:104F00000DE080208A49143108600F20FFF747FF29
:104F100080208749103108600F20FFF740FF8B4841
:104F200001780078401E894A10700029E9D140209C
:104F30007F49143108600220114608700DE080207E
:104F40007B49143108600F20FFF729FF8020784942
:104F5000103108600F20FFF722FF7C4801780078AD
:104F6000401E7A4A10700029E9D140207049103162
:104F700008600220114608700DE080206C49143151
:104F800008600F20FFF70BFF80206949103108608F
:104F90000F20FFF704FF6D4801780078401E6B4A30
:104FA00010700029E9D110BD4FF480615E4A1032C3
:104FB000116089105E4A14321160121F1160121DB7
:104FC0001160121F11608900574A14321160891054
:104FD000574A14321160121F1160121D1160121F06
:104FE0001160490011604910121D1160121F1160FB
:104FF000121D1160121F116049014B4A14321160D9
:105000000021534A11700FE051490978415C474A29
:10501000D1609115464A14321160121F11604C493B
:105020000978491C4A4A117049490978C829EBDBBB
:105030004FF400513C4A1032116049113C4A14327D
:105040001160121F1160121D1160121F116080216A
:10505000121D11608900116049101160121F11604A
:10506000121D1160121F116080211160704710B570
:1050700040213048FBF78BFD0F20FFF790FE4FF4E7
:1050800000612848FBF783FD0F20FFF788FE102101
:105090002548FBF77CFD0F20FFF781FE802121488A
:1050A000FBF775FDFF20FFF77AFE10BD10B58021DC
:1050B0001C48FBF76EFDFF20FFF771FE10211A4818
:1050C000FBF767FD0F20FFF76AFE4FF400611548FC
:1050D000FBF75FFD0F20FFF762FE40211548FBF74D
:1050E00058FDFF20FFF75BFE10BD10B5FFF70CFE6B
:1050F00000F0D4FD4FF480510B48FBF748FD4FF40E
:1051000080410948FBF743FD0C480068012821D184
:10511000C1020548FBF73DFD4FF400410248FBF793
:1051200036FD21E000080140000C01400010014064
:10513000001C01400020014020C500085C00002048
:105140003404002040C50008340C00205800002022
:10515000590000204FF40061B248FBF718FD4FF4EE
:105160000041B048FBF715FDFFF7A0FF4FF480604A
:10517000AC49143108608010AB49086040000860F9
:105180000001A849103108604020A749091F0860A4
:105190008020091D0860FFF70BFE10BD10B5044606
:1051A00024B908219F48FBF7F2FC05E0012C03D14C
:1051B00008219C48FBF7EDFC10BD10B504469B4848
:1051C00004600068012809D1C1029648FBF7E1FCA0
:1051D0004FF400419348FBF7DAFC09E04FF400611B
:1051E0009048FBF7D4FC4FF400418E48FBF7D1FC0C
:1051F000FFF7DEFD10BD8D480068704710B5024610
:10520000002116E0002011E001EBC10303EB0113C4
:1052100000EBC30303F1D0431A7001EBC10303EBAE
:10522000011300EBC303824C1A55401CC828EBDB6A
:10523000491CB1F5167FE5DB10BD2DE9F0410746AD
:10524000FFF715FF002F4DD1002421E0FFF750FE9E
:10525000002516E000260EE005EBC50000EB05106A
:1052600006EBC0007249405C724901EBC000005D72
:1052700071498855761CC82EEED36F48FFF794FE0F
:105280006D1CB5F5167FE5D36B48FFF78DFE641CEA
:10529000082CDBD3002422E0FFF72AFE002517E0CC
:1052A00000260FE005EBC50000EB051006EBC00083
:1052B00000F1D0400078614901EB8000005D5E495B
:1052C0008855761CC82EEDD35B48FFF76DFE6D1C2C
:1052D000B5F5167FE4D35848FFF766FE641C042C2E
:1052E000DAD31BE0012F19D1002415E0FFF700FEEF
:1052F00000250AE0002602E04F498E55761CC82E94
:10530000FAD34D48FFF750FE6D1CB5F5167FF1D36B
:105310004948FFF749FE641C022CE7D3FFF7C6FE9D
:10532000002416E0002511E004EBC40000EB04109B
:1053300005EBC00000F1D040007804EBC40101EBA4
:10534000041105EBC1013A4A88546D1CC82DEBD3FA
:10535000641CB4F5167FE5D3BDE8F081F0B51346C3
:10536000002807DBB0F5487F04DA002902DBB1F53D
:10537000167F00DBF0BDC71700EB9777BC10C7178F
:1053800000EB9777BF10A0EB870201EBC10606EB9D
:10539000011604EBC60606F1D04635780626A6EBC4
:1053A00042070326BE40B54303F003030626A6EBDF
:1053B000420603FA06F62E43F5B201EBC10606EBF0
:1053C000011604EBC60606F1D046357000BFD1E7E2
:1053D00070B50246002A07DBB2F5487F04DA0029DF
:1053E00002DBB1F5167F01DB002070BDD61702EBA2
:1053F0009676B510D61702EB9676B610A2EB86031A
:1054000001EBC10000EB011005EBC00000F1D04042
:1054100004780620A0EB4300044104F00304204676
:10542000E3E70000000C0140141C01405C00002078
:1054300000000268340400206C030020340C0020BB
:105440000146274A002002E0135C0B54401C0C2844
:10545000FADB704710B500F0CFFE002404E02148CD
:10546000205C21490855641C402CF8DB002407E02F
:105470001D4901EBC40001221C4901F08EFF641C90
:10548000082CF5DB012219491748203001F085FF6F
:10549000012216491448283001F07FFF002405E05E
:1054A00004F120001049085C0855641C102CF7DB3F
:1054B00001220E490C4801F070FF01220B490A48F5
:1054C000083001F06AFF0A48FFF7BAFF0C220649CC
:1054D000074802F097FB08B100BFFEE710BD0000CF
:1054E000E8F7FF1F00F807084010002050C500082B
:1054F000341000202DE9F84F044600200090E5B25A
:10550000C4F30726C4F30749680104F0CCF9074641
:105510000022374B04F012F8824604F067F9054682
:10552000B00104F0C0F907460022314B04F006F840
:10553000824604F05BF906464FEA491004F0B3F9DD
:10554000074600222A4B03F0F9FF824604F04EF989
:10555000814649EA461040EAC52000900098BDE81F
:10556000F88F2DE9FC5F044604F02005402000EA96
:105570006416202000EAE429484604F094F907461E
:1055800000221C4B04F0F6F9824600221A4B03F06D
:10559000D5FFCDE9000104F029F98146304604F039
:1055A00082F907460022134B04F0E4F982460022F8
:1055B000124B03F0C3FFCDE9000104F017F90646D2
:1055C000284604F070F9074600220A4B04F0D2F98D
:1055D00082460022084B03F0B1FFCDE9000104F040
:1055E00005F9054649EA062040EA0540BDE8FC9F6A
:1055F0000000704000E06F4000004040000050405C
:105600002DE9F041ADF50A7D05460F4690461E4650
:10561000F7480078012818D10122314601A8FEF789
:10562000F6F904461CB10DF50A7DBDE8F081294666
:1056300001A8FEF748FC6B464246394601A8FEF732
:1056400081FA01A8FEF731FC1AE0E9480078B8B900
:105650003146E84802F0A8FB40B13146E54802F087
:10566000FDFA00223146E44801F055FF2946E248A0
:1056700001F0C1FF6B4642463946DF4801F0BFFFEB
:1056800000BFD0E7F0B500270F60176079E007781A
:10569000802F2ADA0678D94F7F683F7EF71BFEB24B
:1056A000D64F7F683F684FB9DFF850C30F68DCF80A
:1056B00004C0DCF808C067440F6009E0CF4F7F6882
:1056C0007F6907EB06173F68D1F800C067440F6099
:1056D000CA4F7F68FF68D2F800C0674503DDC74F37
:1056E0007F68FF681760401C4BE005784FF6FF7736
:1056F00007EA052547783D4300235C1E0EE0BF4FB7
:1057000057F82370BF69AF4207DCBC4F57F82370CE
:10571000FF69AF4201DB1C4602E05B1C022BEEDBA3
:1057200000BF002C2CDBB54F57F824703F684FB9F1
:10573000DFF8C8C25CF824C00F68DCF808C0674412
:105740000F6010E0AD4F57F823703F8BEF1BBDB2D9
:10575000AA4F57F824707F6907EB05173F68D1F807
:1057600000C067440F60A54F57F82470FF68D2F857
:1057700000C0674504DDA14F57F82470FF6817602B
:10578000801C0778002F82D1F0BD2DE9FE4F044622
:105790000F46904699484068456898484068D0F858
:1057A00008A096484068D0F80C9094484068066974
:1057B00092484068007E201AC4B290484068006851
:1057C00070B904FB06F000FB095501204B46524618
:1057D0004146CDE901650090384600F032FA1CE000
:1057E00086484068406900EB0410C56883484068FB
:1057F000406900EB0410D0F800A080484068406980
:1058000000EB0410866801204B4652464146CDE924
:1058100001650090384600F014FABDE8FE8F2DE9CE
:10582000F74F86B006464FF0FF3506F0FF0B300A03
:1058300004900020039000270EE0704850F82700E5
:105840008069B04207DC6D4850F82700C069B0425B
:1058500001DB3D4602E07F1C022FEEDB00BF002D86
:1058600003DA284609B0BDE8F08F644850F82500F7
:1058700000680590614850F82500D0F804805F4822
:1058800050F8250084685D4850F82500D0F80C9049
:105890005A4850F82500D0F810A0059820283BD091
:1058A000564850F82500008B301A86B2534850F8FD
:1058B0002500006870B906FB0AF000FB098801208A
:1058C0004B462246CDE901A80090DDE9070100F032
:1058D000B8F969E0494850F82500406900EB061026
:1058E000D0F80C80454850F82500406900EB0610C0
:1058F0000468424850F82500406900EB0610D0F8D3
:1059000008A001204B462246CDE901A80090DDE920
:10591000070100F096F947E00598202844D1E117E7
:1059200004EB5171C910B4EBC10107D12046E11756
:1059300004EB5171C91001FB09F707E02046E1179C
:1059400004EB5171C910491C01FB09F7BBF17F0F32
:105950000BDA04988138C0EB401101EB80100BEB9F
:1059600040004038784303900DE0BBF1800F0ADD22
:1059700004988138C0EB401101EB80100BEB400024
:1059800041387843039043463A461D490398FFF750
:1059900037FE1B4801214B462246CDE9001A0290F2
:1059A000DDE9070100F04DF928465BE72DE9F041FC
:1059B00004460E46904654E02078802822DA20786B
:1059C00042463146FFF7E1FE0C484068006820B9C6
:1059D0000A4840688068064408E008484068416911
:1059E0002078203801EB001040680644641C38E041
:1059F000600000206400002080100020740000205F
:105A0000A010002027784FF6FF7000EA0727607883
:105A10000743424631463846FFF701FF0546002D51
:105A20001EDB174850F82500006828B1144850F8CC
:105A300025000068202805D1114850F8250080680D
:105A400006440DE00E4850F82500008B381A87B246
:105A50000B4850F82500406900EB071040680644E9
:105A6000A41C20780028A7D1BDE8F081044A42F8A0
:105A700021007047024A52F82020D2680A6070471D
:105A80007400002070B504460D461646324629467D
:105A90002046FFF763FC70BD2DE9F04706468846B7
:105AA00014461F467B48D0F804A0D0F8009000258B
:105AB0007948006810B101282FD118E000BF217883
:105AC00080232B41194201D0494600E051460A4645
:105AD0003046761C4146FFF7D5FF681C054608286E
